{
  "contractName": "SimpleMarket",
  "abi": [
    {
      "constant": true,
      "inputs": [
        {
          "name": "_key",
          "type": "bytes32"
        }
      ],
      "name": "keyExist",
      "outputs": [
        {
          "name": "",
          "type": "bool"
        }
      ],
      "payable": false,
      "stateMutability": "view",
      "type": "function"
    },
    {
      "constant": true,
      "inputs": [
        {
          "name": "_index",
          "type": "uint256"
        }
      ],
      "name": "getSecretByIndex",
      "outputs": [
        {
          "name": "key",
          "type": "bytes32"
        },
        {
          "name": "title",
          "type": "string"
        },
        {
          "name": "price",
          "type": "uint256"
        },
        {
          "name": "rank",
          "type": "uint256"
        },
        {
          "name": "owner",
          "type": "address"
        }
      ],
      "payable": false,
      "stateMutability": "view",
      "type": "function"
    },
    {
      "constant": false,
      "inputs": [
        {
          "name": "_key",
          "type": "bytes32"
        }
      ],
      "name": "buySecret",
      "outputs": [],
      "payable": true,
      "stateMutability": "payable",
      "type": "function"
    },
    {
      "constant": true,
      "inputs": [
        {
          "name": "_key",
          "type": "bytes32"
        }
      ],
      "name": "revealSecret",
      "outputs": [
        {
          "name": "message",
          "type": "string"
        },
        {
          "name": "rank",
          "type": "uint256"
        }
      ],
      "payable": false,
      "stateMutability": "view",
      "type": "function"
    },
    {
      "constant": true,
      "inputs": [],
      "name": "getNumberOfSecrets",
      "outputs": [
        {
          "name": "",
          "type": "uint256"
        }
      ],
      "payable": false,
      "stateMutability": "view",
      "type": "function"
    },
    {
      "constant": false,
      "inputs": [
        {
          "name": "_title",
          "type": "string"
        },
        {
          "name": "_message",
          "type": "string"
        },
        {
          "name": "_price",
          "type": "uint256"
        }
      ],
      "name": "sellSecret",
      "outputs": [],
      "payable": false,
      "stateMutability": "nonpayable",
      "type": "function"
    },
    {
      "anonymous": false,
      "inputs": [
        {
          "indexed": true,
          "name": "_buyer",
          "type": "address"
        },
        {
          "indexed": false,
          "name": "_key",
          "type": "bytes32"
        }
      ],
      "name": "SecretBoughtEvent",
      "type": "event"
    },
    {
      "anonymous": false,
      "inputs": [
        {
          "indexed": false,
          "name": "key",
          "type": "bytes32"
        },
        {
          "indexed": false,
          "name": "title",
          "type": "string"
        },
        {
          "indexed": false,
          "name": "price",
          "type": "uint256"
        },
        {
          "indexed": false,
          "name": "rank",
          "type": "uint256"
        },
        {
          "indexed": false,
          "name": "owner",
          "type": "address"
        }
      ],
      "name": "SecretAddedEvent",
      "type": "event"
    }
  ],
  "bytecode": "0x6060604052341561000f57600080fd5b610d938061001e6000396000f300606060405260043610610078576000357c0100000000000000000000000000000000000000000000000000000000900463ffffffff16806323f740521461007d57806335c600e6146100bc5780633ec2e7c1146101a857806360307545146101c457806389e79e0b1461026b5780638a50437914610294575b600080fd5b341561008857600080fd5b6100a260048080356000191690602001909190505061033d565b604051808215151515815260200191505060405180910390f35b34156100c757600080fd5b6100dd600480803590602001909190505061039d565b604051808660001916600019168152602001806020018581526020018481526020018373ffffffffffffffffffffffffffffffffffffffff1673ffffffffffffffffffffffffffffffffffffffff168152602001828103825286818151815260200191508051906020019080838360005b8381101561016957808201518184015260208101905061014e565b50505050905090810190601f1680156101965780820380516001836020036101000a031916815260200191505b50965050505050505060405180910390f35b6101c26004808035600019169060200190919050506105f3565b005b34156101cf57600080fd5b6101e96004808035600019169060200190919050506107e3565b6040518080602001838152602001828103825284818151815260200191508051906020019080838360005b8381101561022f578082015181840152602081019050610214565b50505050905090810190601f16801561025c5780820380516001836020036101000a031916815260200191505b50935050505060405180910390f35b341561027657600080fd5b61027e61096c565b6040518082815260200191505060405180910390f35b341561029f57600080fd5b61033b600480803590602001908201803590602001908080601f0160208091040260200160405190810160405280939291908181526020018383808284378201915050505050509190803590602001908201803590602001908080601f01602080910402602001604051908101604052809392919081815260200183838082843782019150505050505091908035906020019091905050610978565b005b600080600090505b60008054905081101561039257826000191660008281548110151561036657fe5b9060005260206000209001546000191614156103855760019150610397565b8080600101915050610345565b600091505b50919050565b60006103a7610bf7565b6000806000806103b5610c0b565b600088101580156103ca575060008054905088105b15156103d257fe5b6000888154811015156103e157fe5b906000526020600020900154915060016000836000191660001916815260200190815260200160002060a06040519081016040529081600082018054600181600116156101000203166002900480601f0160208091040260200160405190810160405280929190818152602001828054600181600116156101000203166002900480156104af5780601f10610484576101008083540402835291602001916104af565b820191906000526020600020905b81548152906001019060200180831161049257829003601f168201915b50505050508152602001600182018054600181600116156101000203166002900480601f0160208091040260200160405190810160405280929190818152602001828054600181600116156101000203166002900480156105515780601f1061052657610100808354040283529160200191610551565b820191906000526020600020905b81548152906001019060200180831161053457829003601f168201915b5050505050815260200160028201548152602001600382015481526020016004820160009054906101000a900473ffffffffffffffffffffffffffffffffffffffff1673ffffffffffffffffffffffffffffffffffffffff1673ffffffffffffffffffffffffffffffffffffffff1681525050905081816000015182604001518360600151846080015183935096509650965096509650505091939590929450565b6000600160008360001916600019168152602001908152602001600020905060003373ffffffffffffffffffffffffffffffffffffffff161415151561063857600080fd5b8060040160009054906101000a900473ffffffffffffffffffffffffffffffffffffffff1673ffffffffffffffffffffffffffffffffffffffff163373ffffffffffffffffffffffffffffffffffffffff161415151561069757600080fd5b8060020154341415156106a957600080fd5b8060040160009054906101000a900473ffffffffffffffffffffffffffffffffffffffff1673ffffffffffffffffffffffffffffffffffffffff166108fc349081150290604051600060405180830381858888f19350505050151561070d57600080fd5b338160040160006101000a81548173ffffffffffffffffffffffffffffffffffffffff021916908373ffffffffffffffffffffffffffffffffffffffff1602179055508060030160008154809291906001900391905055508060040160009054906101000a900473ffffffffffffffffffffffffffffffffffffffff1673ffffffffffffffffffffffffffffffffffffffff167f277f69c03e2037da3669132766a952bef5d82cfb7f0a26a5bc2a05629be2822c8360405180826000191660001916815260200191505060405180910390a25050565b6107eb610bf7565b6000806107f78461033d565b151561080257600080fd5b60016000856000191660001916815260200190815260200160002090503373ffffffffffffffffffffffffffffffffffffffff168160040160009054906101000a900473ffffffffffffffffffffffffffffffffffffffff1673ffffffffffffffffffffffffffffffffffffffff16141561092557806001018160030154818054600181600116156101000203166002900480601f0160208091040260200160405190810160405280929190818152602001828054600181600116156101000203166002900480156109155780601f106108ea57610100808354040283529160200191610915565b820191906000526020600020905b8154815290600101906020018083116108f857829003601f168201915b5050505050915092509250610966565b60006040805190810160405280601681526020017f54686973207365637265742069736e7420796f7572730000000000000000000081525090809050925092505b50915091565b60008080549050905090565b6000826040518082805190602001908083835b6020831015156109b0578051825260208201915060208101905060208303925061098b565b6001836020036101000a0380198251168184511680821785525050505050509050019150506040518091039020905060a060405190810160405280858152602001848152602001838152602001600a81526020013373ffffffffffffffffffffffffffffffffffffffff168152506001600083600019166000191681526020019081526020016000206000820151816000019080519060200190610a55929190610c5d565b506020820151816001019080519060200190610a72929190610c5d565b50604082015181600201556060820151816003015560808201518160040160006101000a81548173ffffffffffffffffffffffffffffffffffffffff021916908373ffffffffffffffffffffffffffffffffffffffff16021790555090505060008054806001018281610ae59190610cdd565b9160005260206000209001600083909190915090600019169055507f2e06531b68feeb314c76f401eec1e2a58eeee938d4bc9525b13fbbfc2f47d4ec818584600a33604051808660001916600019168152602001806020018581526020018481526020018373ffffffffffffffffffffffffffffffffffffffff1673ffffffffffffffffffffffffffffffffffffffff168152602001828103825286818151815260200191508051906020019080838360005b83811015610bb3578082015181840152602081019050610b98565b50505050905090810190601f168015610be05780820380516001836020036101000a031916815260200191505b50965050505050505060405180910390a150505050565b602060405190810160405280600081525090565b60a060405190810160405280610c1f610d09565b8152602001610c2c610d09565b81526020016000815260200160008152602001600073ffffffffffffffffffffffffffffffffffffffff1681525090565b828054600181600116156101000203166002900490600052602060002090601f016020900481019282601f10610c9e57805160ff1916838001178555610ccc565b82800160010185558215610ccc579182015b82811115610ccb578251825591602001919060010190610cb0565b5b509050610cd99190610d1d565b5090565b815481835581811511610d0457818360005260206000209182019101610d039190610d42565b5b505050565b602060405190810160405280600081525090565b610d3f91905b80821115610d3b576000816000905550600101610d23565b5090565b90565b610d6491905b80821115610d60576000816000905550600101610d48565b5090565b905600a165627a7a72305820c407d4cfff98a5d59c6981358b9ef4eaf6c732643fd87f48fe576ff66abdda2d0029",
  "source": "pragma solidity ^0.4.11;\n\ncontract SimpleMarket {\n\n  struct Secret {\n\n    string title;\n    string message;\n    uint256 price;\n    uint256 rank;\n    address owner;\n\n  }\n\n  bytes32[] secretKeys;\n\n  /*\n    Store -> key(hash _message) and value(struct Secret)\n  */\n  mapping(bytes32 => Secret) storedSecrets;\n\n  /*\n    Action Events Declaration\n  */\n  event SecretBoughtEvent(address indexed _buyer, bytes32 _key);\n  event SecretAddedEvent(bytes32 key, string title, uint256 price, uint256 rank, address owner);\n\n  function sellSecret(string _title, string _message, uint256 _price) public {\n    /*\n      create and store secret in contract\n    */\n\n    var key = keccak256(_message);\n    /* if (storedSecrets[key].owner == address(0x0)) return false; */\n\n    storedSecrets[key] = Secret(_title, _message, _price, 10, msg.sender);\n    secretKeys.push(key);\n\n    SecretAddedEvent(key, _title, _price, 10, msg.sender);\n  }\n\n  function buySecret(bytes32 _key) public payable {\n    /*\n      Transfer ownership from seller to buyer\n    */\n    Secret storage secret = storedSecrets[_key];\n    require(msg.sender != 0x0);\n    require(msg.sender != secret.owner);\n    require(msg.value == secret.price);\n\n    secret.owner.transfer(msg.value);\n    secret.owner = msg.sender;\n    secret.rank--;\n\n    SecretBoughtEvent(secret.owner, _key);\n  }\n\n  function revealSecret(bytes32 _key) public view returns(string message, uint256 rank) {\n    /*\n      if caller is owner of secret, returns message\n    */\n    require(keyExist(_key));\n    var secret = storedSecrets[_key];\n\n    if (secret.owner == msg.sender) {\n      return (secret.message, secret.rank);\n    }\n    return (\"This secret isnt yours\", 0);\n  }\n\n  function getSecretByIndex(uint256 _index) public view returns(bytes32 key, string title, uint256 price, uint256 rank, address owner) {\n    /*\n      Public getter: returns partial info about the secret indexed\n    */\n    assert(_index >= 0 && _index < secretKeys.length);\n\n    var _key = secretKeys[_index];\n    Secret memory secret = storedSecrets[_key];\n\n    return (_key, secret.title, secret.price, secret.rank, secret.owner);\n  }\n\n  function getNumberOfSecrets() public view returns(uint256) {\n    /*\n      Public getter: returns the size of storedSecrets Arr\n    */\n    return secretKeys.length;\n  }\n\n  function keyExist(bytes32 _key) public view returns(bool) {\n    /*\n      To change to private method -> check if hashed key already exist\n    */\n    for(uint256 i = 0; i < secretKeys.length; i++){\n      if (secretKeys[i] == _key) return true;\n    }\n    return false;\n  }\n}",
  "sourcePath": "/Users/wlwanpan/ethereum_lab/simple-market/contracts/SimpleMarket.sol",
  "compiler": {
    "name": "solc",
    "version": "0.4.18+commit.9cf6e910.Emscripten.clang"
  },
  "schemaVersion": "1.0.1",
  "updatedAt": "2018-02-22T06:25:09.680Z"
}