{
  "contractName": "SimpleMarket",
  "abi": [
    {
      "constant": true,
      "inputs": [
        {
          "name": "_key",
          "type": "bytes32"
        }
      ],
      "name": "keyExist",
      "outputs": [
        {
          "name": "",
          "type": "bool"
        }
      ],
      "payable": false,
      "stateMutability": "view",
      "type": "function"
    },
    {
      "constant": true,
      "inputs": [
        {
          "name": "_index",
          "type": "uint256"
        }
      ],
      "name": "getSecretByIndex",
      "outputs": [
        {
          "name": "key",
          "type": "bytes32"
        },
        {
          "name": "title",
          "type": "string"
        },
        {
          "name": "price",
          "type": "uint256"
        }
      ],
      "payable": false,
      "stateMutability": "view",
      "type": "function"
    },
    {
      "constant": false,
      "inputs": [
        {
          "name": "_secretKey",
          "type": "bytes32"
        }
      ],
      "name": "buyArticle",
      "outputs": [
        {
          "name": "",
          "type": "string"
        }
      ],
      "payable": true,
      "stateMutability": "payable",
      "type": "function"
    },
    {
      "constant": true,
      "inputs": [
        {
          "name": "_secretKey",
          "type": "bytes32"
        }
      ],
      "name": "revealSecret",
      "outputs": [
        {
          "name": "message",
          "type": "string"
        }
      ],
      "payable": false,
      "stateMutability": "view",
      "type": "function"
    },
    {
      "constant": true,
      "inputs": [
        {
          "name": "_message",
          "type": "string"
        }
      ],
      "name": "hashSecret",
      "outputs": [
        {
          "name": "",
          "type": "bytes32"
        }
      ],
      "payable": false,
      "stateMutability": "pure",
      "type": "function"
    },
    {
      "constant": true,
      "inputs": [],
      "name": "getNumberOfSecrets",
      "outputs": [
        {
          "name": "",
          "type": "uint256"
        }
      ],
      "payable": false,
      "stateMutability": "view",
      "type": "function"
    },
    {
      "constant": false,
      "inputs": [
        {
          "name": "_title",
          "type": "string"
        },
        {
          "name": "_message",
          "type": "string"
        },
        {
          "name": "_price",
          "type": "uint256"
        }
      ],
      "name": "sellSecret",
      "outputs": [
        {
          "name": "",
          "type": "bytes32"
        }
      ],
      "payable": false,
      "stateMutability": "nonpayable",
      "type": "function"
    }
  ],
  "bytecode": "0x6060604052341561000f57600080fd5b610b068061001e6000396000f300606060405260043610610083576000357c0100000000000000000000000000000000000000000000000000000000900463ffffffff16806323f740521461008857806335c600e6146100c757806356298f2514610179578063603075451461020e5780636ad1bbbe146102ae57806389e79e0b146103275780638a50437914610350575b600080fd5b341561009357600080fd5b6100ad600480803560001916906020019091905050610415565b604051808215151515815260200191505060405180910390f35b34156100d257600080fd5b6100e86004808035906020019091905050610475565b60405180846000191660001916815260200180602001838152602001828103825284818151815260200191508051906020019080838360005b8381101561013c578082015181840152602081019050610121565b50505050905090810190601f1680156101695780820380516001836020036101000a031916815260200191505b5094505050505060405180910390f35b610193600480803560001916906020019091905050610572565b6040518080602001828103825283818151815260200191508051906020019080838360005b838110156101d35780820151818401526020810190506101b8565b50505050905090810190601f1680156102005780820380516001836020036101000a031916815260200191505b509250505060405180910390f35b341561021957600080fd5b610233600480803560001916906020019091905050610696565b6040518080602001828103825283818151815260200191508051906020019080838360005b83811015610273578082015181840152602081019050610258565b50505050905090810190601f1680156102a05780820380516001836020036101000a031916815260200191505b509250505060405180910390f35b34156102b957600080fd5b610309600480803590602001908201803590602001908080601f0160208091040260200160405190810160405280939291908181526020018383808284378201915050505050509190505061080e565b60405180826000191660001916815260200191505060405180910390f35b341561033257600080fd5b61033a61087a565b6040518082815260200191505060405180910390f35b341561035b57600080fd5b6103f7600480803590602001908201803590602001908080601f0160208091040260200160405190810160405280939291908181526020018383808284378201915050505050509190803590602001908201803590602001908080601f01602080910402602001604051908101604052809392919081815260200183838082843782019150505050505091908035906020019091905050610884565b60405180826000191660001916815260200191505060405180910390f35b600080600090505b60008054905081101561046a57826000191660008281548110151561043e57fe5b90600052602060002090015460001916141561045d576001915061046f565b808060010191505061041d565b600091505b50919050565b600061047f6109d0565b6000806000808681548110151561049257fe5b9060005260206000209001549150600260008360001916600019168152602001908152602001600020905081816000018260020154818054600181600116156101000203166002900480601f01602080910402602001604051908101604052809291908181526020018280546001816001161561010002031660029004801561055c5780601f106105315761010080835404028352916020019161055c565b820191906000526020600020905b81548152906001019060200180831161053f57829003601f168201915b5050505050915094509450945050509193909250565b61057a6109d0565b60006002600084600019166000191681526020019081526020016000209050338160040160006101000a81548173ffffffffffffffffffffffffffffffffffffffff021916908373ffffffffffffffffffffffffffffffffffffffff160217905550806003016000815480929190600190039190505550806000018054600181600116156101000203166002900480601f0160208091040260200160405190810160405280929190818152602001828054600181600116156101000203166002900480156106895780601f1061065e57610100808354040283529160200191610689565b820191906000526020600020905b81548152906001019060200180831161066c57829003601f168201915b5050505050915050919050565b61069e6109d0565b6000806106aa84610415565b15156106b257fe5b33915060026000856000191660001916815260200190815260200160002090508173ffffffffffffffffffffffffffffffffffffffff168160040160009054906101000a900473ffffffffffffffffffffffffffffffffffffffff1673ffffffffffffffffffffffffffffffffffffffff1614156107ce57806001018054600181600116156101000203166002900480601f0160208091040260200160405190810160405280929190818152602001828054600181600116156101000203166002900480156107c25780601f10610797576101008083540402835291602001916107c2565b820191906000526020600020905b8154815290600101906020018083116107a557829003601f168201915b50505050509250610807565b6040805190810160405280601681526020017f54686973207365637265742069736e7420796f7572730000000000000000000081525092505b5050919050565b6000816040518082805190602001908083835b6020831015156108465780518252602082019150602081019050602083039250610821565b6001836020036101000a03801982511681845116808217855250505050505090500191505060405180910390209050919050565b6000600154905090565b6000806108908461080e565b905060a060405190810160405280868152602001858152602001848152602001600a81526020013373ffffffffffffffffffffffffffffffffffffffff1681525060026000836000191660001916815260200190815260200160002060008201518160000190805190602001906109089291906109e4565b5060208201518160010190805190602001906109259291906109e4565b50604082015181600201556060820151816003015560808201518160040160006101000a81548173ffffffffffffffffffffffffffffffffffffffff021916908373ffffffffffffffffffffffffffffffffffffffff160217905550905050600080548060010182816109989190610a64565b916000526020600020900160008390919091509060001916905550600160008154809291906001019190505550809150509392505050565b602060405190810160405280600081525090565b828054600181600116156101000203166002900490600052602060002090601f016020900481019282601f10610a2557805160ff1916838001178555610a53565b82800160010185558215610a53579182015b82811115610a52578251825591602001919060010190610a37565b5b509050610a609190610a90565b5090565b815481835581811511610a8b57818360005260206000209182019101610a8a9190610ab5565b5b505050565b610ab291905b80821115610aae576000816000905550600101610a96565b5090565b90565b610ad791905b80821115610ad3576000816000905550600101610abb565b5090565b905600a165627a7a72305820906f6bdeb488d4a2053f73ff4ff10e89ff677fd073caf74337d723f6e7b59ddf0029",
  "source": "pragma solidity ^0.4.11;\n\ncontract SimpleMarket {\n\n  struct Secret {\n\n    string title;\n    string message;\n    uint256 price;\n    uint256 rank; // to implement ranking system after\n    address owner;\n\n  }\n\n  bytes32[] secretKeys;\n  uint256 secretCount;\n\n  /*\n    Store -> key(hash _message) and value(struct Secret)\n  */\n  mapping(bytes32 => Secret) storedSecrets;\n\n  function sellSecret(string _title, string _message, uint256 _price) public returns(bytes32) {\n    /*\n      create and store secret in contract\n    */\n\n    var secretKey = hashSecret(_message);\n    /* if (storedSecrets[secretKey].owner == address(0x0)) return false; */\n\n    storedSecrets[secretKey] = Secret(_title, _message, _price, 10, msg.sender);\n    secretKeys.push(secretKey);\n    secretCount++;\n\n    return secretKey;\n  }\n\n  function buyArticle(bytes32 _secretKey) payable public returns(string) {\n    /* To continue implementation | need to remove from array | add transaction transfer */\n\n    var secret = storedSecrets[_secretKey];\n\n    secret.owner = msg.sender;\n    secret.rank--;\n\n    return (secret.title);\n  }\n\n  function revealSecret(bytes32 _secretKey) public view returns(string message) {\n    /*\n      if caller is owner of secret, returns message\n    */\n    assert(keyExist(_secretKey));\n\n    var callerAddress = msg.sender;\n    var secret = storedSecrets[_secretKey];\n\n    if (secret.owner == callerAddress) return (secret.message);\n    return (\"This secret isnt yours\");\n  }\n\n  function getSecretByIndex(uint256 _index) public view returns(bytes32 key, string title, uint256 price) {\n    /*\n      Public getter: returns partial info about the secret indexed\n    */\n    var _key = secretKeys[_index];\n    var secretToReturn = storedSecrets[_key];\n\n    return (_key, secretToReturn.title, secretToReturn.price);\n  }\n\n  function getNumberOfSecrets() public view returns(uint256) {\n    /*\n      Public getter: returns the size of storedSecrets Arr\n    */\n    return secretCount;\n  }\n\n  function hashSecret(string _message) public pure returns(bytes32) {\n    /*\n      Hash the message to serve as key for storedSecrets\n    */\n    return keccak256(_message);\n  }\n\n  function keyExist(bytes32 _key) public view returns(bool) {\n    /*\n      To change to private method -> check if hashed key already exist\n    */\n\n    for(uint256 i = 0; i < secretKeys.length; i++){\n      if (secretKeys[i] == _key) return true;\n    }\n    return false;\n  }\n}",
  "sourcePath": "/Users/wlwanpan/ethereum_lab/simple-market/contracts/SimpleMarket.sol",
  "compiler": {
    "name": "solc",
    "version": "0.4.18+commit.9cf6e910.Emscripten.clang"
  },
  "schemaVersion": "1.0.1",
  "updatedAt": "2018-02-03T20:24:20.531Z"
}