{
  "contractName": "SimpleMarket",
  "abi": [
    {
      "constant": true,
      "inputs": [
        {
          "name": "_key",
          "type": "bytes32"
        }
      ],
      "name": "keyExist",
      "outputs": [
        {
          "name": "",
          "type": "bool"
        }
      ],
      "payable": false,
      "stateMutability": "view",
      "type": "function"
    },
    {
      "constant": true,
      "inputs": [
        {
          "name": "_index",
          "type": "uint256"
        }
      ],
      "name": "getSecretByIndex",
      "outputs": [
        {
          "name": "key",
          "type": "bytes32"
        },
        {
          "name": "title",
          "type": "string"
        },
        {
          "name": "price",
          "type": "uint256"
        }
      ],
      "payable": false,
      "stateMutability": "view",
      "type": "function"
    },
    {
      "constant": false,
      "inputs": [
        {
          "name": "_key",
          "type": "bytes32"
        }
      ],
      "name": "buyArticle",
      "outputs": [
        {
          "name": "",
          "type": "string"
        }
      ],
      "payable": true,
      "stateMutability": "payable",
      "type": "function"
    },
    {
      "constant": true,
      "inputs": [
        {
          "name": "_key",
          "type": "bytes32"
        }
      ],
      "name": "revealSecret",
      "outputs": [
        {
          "name": "message",
          "type": "string"
        }
      ],
      "payable": false,
      "stateMutability": "view",
      "type": "function"
    },
    {
      "constant": true,
      "inputs": [],
      "name": "getNumberOfSecrets",
      "outputs": [
        {
          "name": "",
          "type": "uint256"
        }
      ],
      "payable": false,
      "stateMutability": "view",
      "type": "function"
    },
    {
      "constant": false,
      "inputs": [
        {
          "name": "_title",
          "type": "string"
        },
        {
          "name": "_message",
          "type": "string"
        },
        {
          "name": "_price",
          "type": "uint256"
        }
      ],
      "name": "sellSecret",
      "outputs": [
        {
          "name": "",
          "type": "bytes32"
        }
      ],
      "payable": false,
      "stateMutability": "nonpayable",
      "type": "function"
    }
  ],
  "bytecode": "0x6060604052341561000f57600080fd5b610a7d8061001e6000396000f300606060405260043610610078576000357c0100000000000000000000000000000000000000000000000000000000900463ffffffff16806323f740521461007d57806335c600e6146100bc57806356298f251461016e578063603075451461020357806389e79e0b146102a35780638a504379146102cc575b600080fd5b341561008857600080fd5b6100a2600480803560001916906020019091905050610391565b604051808215151515815260200191505060405180910390f35b34156100c757600080fd5b6100dd60048080359060200190919050506103f1565b60405180846000191660001916815260200180602001838152602001828103825284818151815260200191508051906020019080838360005b83811015610131578082015181840152602081019050610116565b50505050905090810190601f16801561015e5780820380516001836020036101000a031916815260200191505b5094505050505060405180910390f35b61018860048080356000191690602001909190505061050b565b6040518080602001828103825283818151815260200191508051906020019080838360005b838110156101c85780820151818401526020810190506101ad565b50505050905090810190601f1680156101f55780820380516001836020036101000a031916815260200191505b509250505060405180910390f35b341561020e57600080fd5b61022860048080356000191690602001909190505061062f565b6040518080602001828103825283818151815260200191508051906020019080838360005b8381101561026857808201518184015260208101905061024d565b50505050905090810190601f1680156102955780820380516001836020036101000a031916815260200191505b509250505060405180910390f35b34156102ae57600080fd5b6102b66107a7565b6040518082815260200191505060405180910390f35b34156102d757600080fd5b610373600480803590602001908201803590602001908080601f0160208091040260200160405190810160405280939291908181526020018383808284378201915050505050509190803590602001908201803590602001908080601f016020809104026020016040519081016040528093929190818152602001838380828437820191505050505050919080359060200190919050506107b3565b60405180826000191660001916815260200191505060405180910390f35b600080600090505b6000805490508110156103e65782600019166000828154811015156103ba57fe5b9060005260206000209001546000191614156103d957600191506103eb565b8080600101915050610399565b600091505b50919050565b60006103fb610947565b6000806000808610158015610414575060008054905086105b151561041c57fe5b60008681548110151561042b57fe5b9060005260206000209001549150600160008360001916600019168152602001908152602001600020905081816000018260020154818054600181600116156101000203166002900480601f0160208091040260200160405190810160405280929190818152602001828054600181600116156101000203166002900480156104f55780601f106104ca576101008083540402835291602001916104f5565b820191906000526020600020905b8154815290600101906020018083116104d857829003601f168201915b5050505050915094509450945050509193909250565b610513610947565b60006001600084600019166000191681526020019081526020016000209050338160040160006101000a81548173ffffffffffffffffffffffffffffffffffffffff021916908373ffffffffffffffffffffffffffffffffffffffff160217905550806003016000815480929190600190039190505550806000018054600181600116156101000203166002900480601f0160208091040260200160405190810160405280929190818152602001828054600181600116156101000203166002900480156106225780601f106105f757610100808354040283529160200191610622565b820191906000526020600020905b81548152906001019060200180831161060557829003601f168201915b5050505050915050919050565b610637610947565b60008061064384610391565b151561064b57fe5b33915060016000856000191660001916815260200190815260200160002090508173ffffffffffffffffffffffffffffffffffffffff168160040160009054906101000a900473ffffffffffffffffffffffffffffffffffffffff1673ffffffffffffffffffffffffffffffffffffffff16141561076757806001018054600181600116156101000203166002900480601f01602080910402602001604051908101604052809291908181526020018280546001816001161561010002031660029004801561075b5780601f106107305761010080835404028352916020019161075b565b820191906000526020600020905b81548152906001019060200180831161073e57829003601f168201915b505050505092506107a0565b6040805190810160405280601681526020017f54686973207365637265742069736e7420796f7572730000000000000000000081525092505b5050919050565b60008080549050905090565b600080836040518082805190602001908083835b6020831015156107ec57805182526020820191506020810190506020830392506107c7565b6001836020036101000a0380198251168184511680821785525050505050509050019150506040518091039020905060a060405190810160405280868152602001858152602001848152602001600a81526020013373ffffffffffffffffffffffffffffffffffffffff16815250600160008360001916600019168152602001908152602001600020600082015181600001908051906020019061089192919061095b565b5060208201518160010190805190602001906108ae92919061095b565b50604082015181600201556060820151816003015560808201518160040160006101000a81548173ffffffffffffffffffffffffffffffffffffffff021916908373ffffffffffffffffffffffffffffffffffffffff1602179055509050506000805480600101828161092191906109db565b916000526020600020900160008390919091509060001916905550809150509392505050565b602060405190810160405280600081525090565b828054600181600116156101000203166002900490600052602060002090601f016020900481019282601f1061099c57805160ff19168380011785556109ca565b828001600101855582156109ca579182015b828111156109c95782518255916020019190600101906109ae565b5b5090506109d79190610a07565b5090565b815481835581811511610a0257818360005260206000209182019101610a019190610a2c565b5b505050565b610a2991905b80821115610a25576000816000905550600101610a0d565b5090565b90565b610a4e91905b80821115610a4a576000816000905550600101610a32565b5090565b905600a165627a7a723058204df436c46fa3599ee4b95f831f8b6c66560541d5a3107b59da5b2bc11c1a05b10029",
  "source": "pragma solidity ^0.4.11;\n\ncontract SimpleMarket {\n\n  struct Secret {\n\n    string title;\n    string message;\n    uint256 price;\n    uint256 rank; // to implement ranking system after\n    address owner;\n\n  }\n\n  bytes32[] secretKeys;\n\n  /*\n    Store -> key(hash _message) and value(struct Secret)\n  */\n  mapping(bytes32 => Secret) storedSecrets;\n\n  function sellSecret(string _title, string _message, uint256 _price) public returns(bytes32) {\n    /*\n      create and store secret in contract\n    */\n\n    var key = keccak256(_message);\n    /* if (storedSecrets[key].owner == address(0x0)) return false; */\n\n    storedSecrets[key] = Secret(_title, _message, _price, 10, msg.sender);\n    secretKeys.push(key);\n\n    return (key);\n  }\n\n  function buyArticle(bytes32 _key) payable public returns(string) {\n    /* To continue implementation | need to remove from array | add transaction transfer */\n\n    var secret = storedSecrets[_key];\n\n    secret.owner = msg.sender;\n    secret.rank--;\n\n    return (secret.title);\n  }\n\n  function revealSecret(bytes32 _key) public view returns(string message) {\n    /*\n      if caller is owner of secret, returns message\n    */\n    assert(keyExist(_key));\n\n    var callerAddress = msg.sender;\n    var secret = storedSecrets[_key];\n\n    if (secret.owner == callerAddress) return (secret.message);\n    return (\"This secret isnt yours\");\n  }\n\n  function getSecretByIndex(uint256 _index) public view returns(bytes32 key, string title, uint256 price) {\n    /*\n      Public getter: returns partial info about the secret indexed\n    */\n    assert(_index >= 0 && _index < secretKeys.length);\n\n    var _key = secretKeys[_index];\n    var secretToReturn = storedSecrets[_key];\n\n    return (_key, secretToReturn.title, secretToReturn.price);\n  }\n\n  function getNumberOfSecrets() public view returns(uint256) {\n    /*\n      Public getter: returns the size of storedSecrets Arr\n    */\n    return secretKeys.length;\n  }\n\n  function keyExist(bytes32 _key) public view returns(bool) {\n    /*\n      To change to private method -> check if hashed key already exist\n    */\n    for(uint256 i = 0; i < secretKeys.length; i++){\n      if (secretKeys[i] == _key) return true;\n    }\n    return false;\n  }\n}",
  "sourcePath": "/Users/wlwanpan/ethereum_lab/simple-market/contracts/SimpleMarket.sol",
  "compiler": {
    "name": "solc",
    "version": "0.4.18+commit.9cf6e910.Emscripten.clang"
  },
  "schemaVersion": "1.0.1",
  "updatedAt": "2018-02-07T02:14:18.870Z"
}