{
  "contractName": "SimpleMarket",
  "abi": [
    {
      "constant": true,
      "inputs": [
        {
          "name": "_key",
          "type": "bytes32"
        }
      ],
      "name": "keyExist",
      "outputs": [
        {
          "name": "",
          "type": "bool"
        }
      ],
      "payable": false,
      "stateMutability": "view",
      "type": "function"
    },
    {
      "constant": true,
      "inputs": [
        {
          "name": "_index",
          "type": "uint256"
        }
      ],
      "name": "getSecretByIndex",
      "outputs": [
        {
          "name": "key",
          "type": "bytes32"
        },
        {
          "name": "title",
          "type": "string"
        },
        {
          "name": "price",
          "type": "uint256"
        },
        {
          "name": "rank",
          "type": "uint256"
        },
        {
          "name": "owned",
          "type": "bool"
        }
      ],
      "payable": false,
      "stateMutability": "view",
      "type": "function"
    },
    {
      "constant": false,
      "inputs": [
        {
          "name": "_key",
          "type": "bytes32"
        }
      ],
      "name": "buySecret",
      "outputs": [
        {
          "name": "key",
          "type": "bytes32"
        },
        {
          "name": "rank",
          "type": "uint256"
        },
        {
          "name": "owned",
          "type": "bool"
        }
      ],
      "payable": true,
      "stateMutability": "payable",
      "type": "function"
    },
    {
      "constant": true,
      "inputs": [
        {
          "name": "_key",
          "type": "bytes32"
        }
      ],
      "name": "revealSecret",
      "outputs": [
        {
          "name": "message",
          "type": "string"
        }
      ],
      "payable": false,
      "stateMutability": "view",
      "type": "function"
    },
    {
      "constant": true,
      "inputs": [],
      "name": "getNumberOfSecrets",
      "outputs": [
        {
          "name": "",
          "type": "uint256"
        }
      ],
      "payable": false,
      "stateMutability": "view",
      "type": "function"
    },
    {
      "constant": false,
      "inputs": [
        {
          "name": "_title",
          "type": "string"
        },
        {
          "name": "_message",
          "type": "string"
        },
        {
          "name": "_price",
          "type": "uint256"
        }
      ],
      "name": "sellSecret",
      "outputs": [
        {
          "name": "",
          "type": "bytes32"
        }
      ],
      "payable": false,
      "stateMutability": "nonpayable",
      "type": "function"
    }
  ],
  "bytecode": "0x6060604052341561000f57600080fd5b610a9d8061001e6000396000f300606060405260043610610078576000357c0100000000000000000000000000000000000000000000000000000000900463ffffffff16806323f740521461007d57806335c600e6146100bc5780633ec2e7c11461018057806360307545146101ca57806389e79e0b1461026a5780638a50437914610293575b600080fd5b341561008857600080fd5b6100a2600480803560001916906020019091905050610358565b604051808215151515815260200191505060405180910390f35b34156100c757600080fd5b6100dd60048080359060200190919050506103b8565b6040518086600019166000191681526020018060200185815260200184815260200183151515158152602001828103825286818151815260200191508051906020019080838360005b83811015610141578082015181840152602081019050610126565b50505050905090810190601f16801561016e5780820380516001836020036101000a031916815260200191505b50965050505050505060405180910390f35b61019a60048080356000191690602001909190505061053e565b60405180846000191660001916815260200183815260200182151515158152602001935050505060405180910390f35b34156101d557600080fd5b6101ef600480803560001916906020019091905050610654565b6040518080602001828103825283818151815260200191508051906020019080838360005b8381101561022f578082015181840152602081019050610214565b50505050905090810190601f16801561025c5780820380516001836020036101000a031916815260200191505b509250505060405180910390f35b341561027557600080fd5b61027d6107c7565b6040518082815260200191505060405180910390f35b341561029e57600080fd5b61033a600480803590602001908201803590602001908080601f0160208091040260200160405190810160405280939291908181526020018383808284378201915050505050509190803590602001908201803590602001908080601f016020809104026020016040519081016040528093929190818152602001838380828437820191505050505050919080359060200190919050506107d3565b60405180826000191660001916815260200191505060405180910390f35b600080600090505b6000805490508110156103ad57826000191660008281548110151561038157fe5b9060005260206000209001546000191614156103a057600191506103b2565b8080600101915050610360565b600091505b50919050565b60006103c2610967565b60008060008060008088101580156103de575060008054905088105b15156103e657fe5b6000888154811015156103f557fe5b906000526020600020900154915060016000836000191660001916815260200190815260200160002090503373ffffffffffffffffffffffffffffffffffffffff168160040160009054906101000a900473ffffffffffffffffffffffffffffffffffffffff1673ffffffffffffffffffffffffffffffffffffffff16141561047d57600192505b81816000018260020154836003015486838054600181600116156101000203166002900480601f0160208091040260200160405190810160405280929190818152602001828054600181600116156101000203166002900480156105225780601f106104f757610100808354040283529160200191610522565b820191906000526020600020905b81548152906001019060200180831161050557829003601f168201915b5050505050935096509650965096509650505091939590929450565b60008060008060016000866000191660001916815260200190815260200160002090508060020154341015151561057457600080fd5b8060040160009054906101000a900473ffffffffffffffffffffffffffffffffffffffff1673ffffffffffffffffffffffffffffffffffffffff166108fc349081150290604051600060405180830381858888f193505050501561063d57338160040160006101000a81548173ffffffffffffffffffffffffffffffffffffffff021916908373ffffffffffffffffffffffffffffffffffffffff160217905550806003016000815480929190600190039190505550848160030154600193509350935061064c565b84816003015460009350935093505b509193909250565b61065c610967565b600061066783610358565b151561066f57fe5b60016000846000191660001916815260200190815260200160002090503373ffffffffffffffffffffffffffffffffffffffff168160040160009054906101000a900473ffffffffffffffffffffffffffffffffffffffff1673ffffffffffffffffffffffffffffffffffffffff16141561078857806001018054600181600116156101000203166002900480601f01602080910402602001604051908101604052809291908181526020018280546001816001161561010002031660029004801561077c5780601f106107515761010080835404028352916020019161077c565b820191906000526020600020905b81548152906001019060200180831161075f57829003601f168201915b505050505091506107c1565b6040805190810160405280601681526020017f54686973207365637265742069736e7420796f7572730000000000000000000081525091505b50919050565b60008080549050905090565b600080836040518082805190602001908083835b60208310151561080c57805182526020820191506020810190506020830392506107e7565b6001836020036101000a0380198251168184511680821785525050505050509050019150506040518091039020905060a060405190810160405280868152602001858152602001848152602001600a81526020013373ffffffffffffffffffffffffffffffffffffffff1681525060016000836000191660001916815260200190815260200160002060008201518160000190805190602001906108b192919061097b565b5060208201518160010190805190602001906108ce92919061097b565b50604082015181600201556060820151816003015560808201518160040160006101000a81548173ffffffffffffffffffffffffffffffffffffffff021916908373ffffffffffffffffffffffffffffffffffffffff1602179055509050506000805480600101828161094191906109fb565b916000526020600020900160008390919091509060001916905550809150509392505050565b602060405190810160405280600081525090565b828054600181600116156101000203166002900490600052602060002090601f016020900481019282601f106109bc57805160ff19168380011785556109ea565b828001600101855582156109ea579182015b828111156109e95782518255916020019190600101906109ce565b5b5090506109f79190610a27565b5090565b815481835581811511610a2257818360005260206000209182019101610a219190610a4c565b5b505050565b610a4991905b80821115610a45576000816000905550600101610a2d565b5090565b90565b610a6e91905b80821115610a6a576000816000905550600101610a52565b5090565b905600a165627a7a7230582058ece7576d86f7712a1a4d5a9891609550ea69916c4280fdfb3a32784ba8ed4c0029",
  "source": "pragma solidity ^0.4.11;\n\ncontract SimpleMarket {\n\n  struct Secret {\n\n    string title;\n    string message;\n    uint256 price;\n    uint256 rank; // to implement ranking system after\n    address owner;\n\n  }\n\n  bytes32[] secretKeys;\n\n  /*\n    Store -> key(hash _message) and value(struct Secret)\n  */\n  mapping(bytes32 => Secret) storedSecrets;\n\n  function sellSecret(string _title, string _message, uint256 _price) public returns(bytes32) {\n    /*\n      create and store secret in contract\n    */\n\n    var key = keccak256(_message);\n    /* if (storedSecrets[key].owner == address(0x0)) return false; */\n\n    storedSecrets[key] = Secret(_title, _message, _price, 10, msg.sender);\n    secretKeys.push(key);\n\n    return (key);\n  }\n\n  function buySecret(bytes32 _key) public payable returns(bytes32 key, uint256 rank, bool owned) {\n    /*\n      Transfer ownership from seller to buyer\n    */\n    var secret = storedSecrets[_key];\n    require(msg.value >= secret.price);\n\n    /* send returns a bool after transaction state | transfer raise error -> check best practice/ error handling */\n    if (secret.owner.send(msg.value)) {\n      secret.owner = msg.sender;\n      secret.rank--;\n\n      return (_key, secret.rank, true);\n    }\n    else {\n      return (_key, secret.rank, false);\n    }\n  }\n\n  function revealSecret(bytes32 _key) public view returns(string message) {\n    /*\n      if caller is owner of secret, returns message\n    */\n    assert(keyExist(_key));\n    var secret = storedSecrets[_key];\n\n    if (secret.owner == msg.sender) return (secret.message);\n    return (\"This secret isnt yours\");\n  }\n\n  function getSecretByIndex(uint256 _index) public view returns(bytes32 key, string title, uint256 price, uint256 rank, bool owned) {\n    /*\n      Public getter: returns partial info about the secret indexed\n    */\n    assert(_index >= 0 && _index < secretKeys.length);\n\n    var _key = secretKeys[_index];\n    var secretToReturn = storedSecrets[_key];\n\n    if (secretToReturn.owner == msg.sender) {\n      owned = true;\n    }\n\n    return (_key, secretToReturn.title, secretToReturn.price, secretToReturn.rank, owned);\n  }\n\n  function getNumberOfSecrets() public view returns(uint256) {\n    /*\n      Public getter: returns the size of storedSecrets Arr\n    */\n    return secretKeys.length;\n  }\n\n  function keyExist(bytes32 _key) public view returns(bool) {\n    /*\n      To change to private method -> check if hashed key already exist\n    */\n    for(uint256 i = 0; i < secretKeys.length; i++){\n      if (secretKeys[i] == _key) return true;\n    }\n    return false;\n  }\n}",
  "sourcePath": "/Users/wlwanpan/ethereum_lab/simple-market/contracts/SimpleMarket.sol",
  "compiler": {
    "name": "solc",
    "version": "0.4.18+commit.9cf6e910.Emscripten.clang"
  },
  "schemaVersion": "1.0.1",
  "updatedAt": "2018-02-11T02:09:35.046Z"
}